{
  "contractName": "dVC",
  "abi": [
    {
      "anonymous": false,
      "inputs": [
        {
          "indexed": true,
          "internalType": "address",
          "name": "fromAddress",
          "type": "address"
        },
        {
          "indexed": false,
          "internalType": "uint256",
          "name": "amount",
          "type": "uint256"
        }
      ],
      "name": "NewMember",
      "type": "event"
    },
    {
      "anonymous": false,
      "inputs": [
        {
          "indexed": true,
          "internalType": "address",
          "name": "proposer",
          "type": "address"
        },
        {
          "indexed": false,
          "internalType": "uint256",
          "name": "amount",
          "type": "uint256"
        }
      ],
      "name": "NewProposal",
      "type": "event"
    },
    {
      "anonymous": false,
      "inputs": [
        {
          "indexed": true,
          "internalType": "address",
          "name": "stakeholder",
          "type": "address"
        },
        {
          "indexed": true,
          "internalType": "address",
          "name": "projectAddress",
          "type": "address"
        },
        {
          "indexed": false,
          "internalType": "uint256",
          "name": "amount",
          "type": "uint256"
        }
      ],
      "name": "Payment",
      "type": "event"
    },
    {
      "anonymous": false,
      "inputs": [
        {
          "indexed": true,
          "internalType": "bytes32",
          "name": "role",
          "type": "bytes32"
        },
        {
          "indexed": true,
          "internalType": "bytes32",
          "name": "previousAdminRole",
          "type": "bytes32"
        },
        {
          "indexed": true,
          "internalType": "bytes32",
          "name": "newAdminRole",
          "type": "bytes32"
        }
      ],
      "name": "RoleAdminChanged",
      "type": "event"
    },
    {
      "anonymous": false,
      "inputs": [
        {
          "indexed": true,
          "internalType": "bytes32",
          "name": "role",
          "type": "bytes32"
        },
        {
          "indexed": true,
          "internalType": "address",
          "name": "account",
          "type": "address"
        },
        {
          "indexed": true,
          "internalType": "address",
          "name": "sender",
          "type": "address"
        }
      ],
      "name": "RoleGranted",
      "type": "event"
    },
    {
      "anonymous": false,
      "inputs": [
        {
          "indexed": true,
          "internalType": "bytes32",
          "name": "role",
          "type": "bytes32"
        },
        {
          "indexed": true,
          "internalType": "address",
          "name": "account",
          "type": "address"
        },
        {
          "indexed": true,
          "internalType": "address",
          "name": "sender",
          "type": "address"
        }
      ],
      "name": "RoleRevoked",
      "type": "event"
    },
    {
      "inputs": [],
      "name": "DEFAULT_ADMIN_ROLE",
      "outputs": [
        {
          "internalType": "bytes32",
          "name": "",
          "type": "bytes32"
        }
      ],
      "stateMutability": "view",
      "type": "function",
      "constant": true
    },
    {
      "inputs": [],
      "name": "MEMBER",
      "outputs": [
        {
          "internalType": "bytes32",
          "name": "",
          "type": "bytes32"
        }
      ],
      "stateMutability": "view",
      "type": "function",
      "constant": true
    },
    {
      "inputs": [],
      "name": "STAKEHOLDER",
      "outputs": [
        {
          "internalType": "bytes32",
          "name": "",
          "type": "bytes32"
        }
      ],
      "stateMutability": "view",
      "type": "function",
      "constant": true
    },
    {
      "inputs": [
        {
          "internalType": "bytes32",
          "name": "role",
          "type": "bytes32"
        }
      ],
      "name": "getRoleAdmin",
      "outputs": [
        {
          "internalType": "bytes32",
          "name": "",
          "type": "bytes32"
        }
      ],
      "stateMutability": "view",
      "type": "function",
      "constant": true
    },
    {
      "inputs": [
        {
          "internalType": "bytes32",
          "name": "role",
          "type": "bytes32"
        },
        {
          "internalType": "address",
          "name": "account",
          "type": "address"
        }
      ],
      "name": "grantRole",
      "outputs": [],
      "stateMutability": "nonpayable",
      "type": "function"
    },
    {
      "inputs": [
        {
          "internalType": "bytes32",
          "name": "role",
          "type": "bytes32"
        },
        {
          "internalType": "address",
          "name": "account",
          "type": "address"
        }
      ],
      "name": "hasRole",
      "outputs": [
        {
          "internalType": "bool",
          "name": "",
          "type": "bool"
        }
      ],
      "stateMutability": "view",
      "type": "function",
      "constant": true
    },
    {
      "inputs": [],
      "name": "proposalsCount",
      "outputs": [
        {
          "internalType": "uint256",
          "name": "",
          "type": "uint256"
        }
      ],
      "stateMutability": "view",
      "type": "function",
      "constant": true
    },
    {
      "inputs": [
        {
          "internalType": "bytes32",
          "name": "role",
          "type": "bytes32"
        },
        {
          "internalType": "address",
          "name": "account",
          "type": "address"
        }
      ],
      "name": "renounceRole",
      "outputs": [],
      "stateMutability": "nonpayable",
      "type": "function"
    },
    {
      "inputs": [
        {
          "internalType": "bytes32",
          "name": "role",
          "type": "bytes32"
        },
        {
          "internalType": "address",
          "name": "account",
          "type": "address"
        }
      ],
      "name": "revokeRole",
      "outputs": [],
      "stateMutability": "nonpayable",
      "type": "function"
    },
    {
      "inputs": [
        {
          "internalType": "bytes4",
          "name": "interfaceId",
          "type": "bytes4"
        }
      ],
      "name": "supportsInterface",
      "outputs": [
        {
          "internalType": "bool",
          "name": "",
          "type": "bool"
        }
      ],
      "stateMutability": "view",
      "type": "function",
      "constant": true
    },
    {
      "inputs": [
        {
          "internalType": "string",
          "name": "title",
          "type": "string"
        },
        {
          "internalType": "string",
          "name": "desc",
          "type": "string"
        },
        {
          "internalType": "address",
          "name": "receiverAddress",
          "type": "address"
        },
        {
          "internalType": "uint256",
          "name": "amount",
          "type": "uint256"
        },
        {
          "internalType": "string",
          "name": "imageId",
          "type": "string"
        }
      ],
      "name": "createProposal",
      "outputs": [],
      "stateMutability": "payable",
      "type": "function",
      "payable": true
    },
    {
      "inputs": [],
      "name": "getAllProposals",
      "outputs": [
        {
          "components": [
            {
              "internalType": "uint256",
              "name": "id",
              "type": "uint256"
            },
            {
              "internalType": "uint256",
              "name": "amount",
              "type": "uint256"
            },
            {
              "internalType": "uint256",
              "name": "livePeriod",
              "type": "uint256"
            },
            {
              "internalType": "uint256",
              "name": "voteInFavor",
              "type": "uint256"
            },
            {
              "internalType": "uint256",
              "name": "voteAgainst",
              "type": "uint256"
            },
            {
              "internalType": "string",
              "name": "title",
              "type": "string"
            },
            {
              "internalType": "string",
              "name": "desc",
              "type": "string"
            },
            {
              "internalType": "bool",
              "name": "isCompleted",
              "type": "bool"
            },
            {
              "internalType": "bool",
              "name": "paid",
              "type": "bool"
            },
            {
              "internalType": "bool",
              "name": "isPaid",
              "type": "bool"
            },
            {
              "internalType": "address payable",
              "name": "receiverAddress",
              "type": "address"
            },
            {
              "internalType": "address",
              "name": "proposer",
              "type": "address"
            },
            {
              "internalType": "uint256",
              "name": "totalFundRaised",
              "type": "uint256"
            },
            {
              "components": [
                {
                  "internalType": "address",
                  "name": "payer",
                  "type": "address"
                },
                {
                  "internalType": "uint256",
                  "name": "amount",
                  "type": "uint256"
                },
                {
                  "internalType": "uint256",
                  "name": "timestamp",
                  "type": "uint256"
                }
              ],
              "internalType": "struct dVC.Funding[]",
              "name": "funders",
              "type": "tuple[]"
            },
            {
              "internalType": "string",
              "name": "imageId",
              "type": "string"
            }
          ],
          "internalType": "struct dVC.Proposal[]",
          "name": "",
          "type": "tuple[]"
        }
      ],
      "stateMutability": "view",
      "type": "function",
      "constant": true
    },
    {
      "inputs": [
        {
          "internalType": "uint256",
          "name": "proposalId",
          "type": "uint256"
        }
      ],
      "name": "getProposal",
      "outputs": [
        {
          "components": [
            {
              "internalType": "uint256",
              "name": "id",
              "type": "uint256"
            },
            {
              "internalType": "uint256",
              "name": "amount",
              "type": "uint256"
            },
            {
              "internalType": "uint256",
              "name": "livePeriod",
              "type": "uint256"
            },
            {
              "internalType": "uint256",
              "name": "voteInFavor",
              "type": "uint256"
            },
            {
              "internalType": "uint256",
              "name": "voteAgainst",
              "type": "uint256"
            },
            {
              "internalType": "string",
              "name": "title",
              "type": "string"
            },
            {
              "internalType": "string",
              "name": "desc",
              "type": "string"
            },
            {
              "internalType": "bool",
              "name": "isCompleted",
              "type": "bool"
            },
            {
              "internalType": "bool",
              "name": "paid",
              "type": "bool"
            },
            {
              "internalType": "bool",
              "name": "isPaid",
              "type": "bool"
            },
            {
              "internalType": "address payable",
              "name": "receiverAddress",
              "type": "address"
            },
            {
              "internalType": "address",
              "name": "proposer",
              "type": "address"
            },
            {
              "internalType": "uint256",
              "name": "totalFundRaised",
              "type": "uint256"
            },
            {
              "components": [
                {
                  "internalType": "address",
                  "name": "payer",
                  "type": "address"
                },
                {
                  "internalType": "uint256",
                  "name": "amount",
                  "type": "uint256"
                },
                {
                  "internalType": "uint256",
                  "name": "timestamp",
                  "type": "uint256"
                }
              ],
              "internalType": "struct dVC.Funding[]",
              "name": "funders",
              "type": "tuple[]"
            },
            {
              "internalType": "string",
              "name": "imageId",
              "type": "string"
            }
          ],
          "internalType": "struct dVC.Proposal",
          "name": "",
          "type": "tuple"
        }
      ],
      "stateMutability": "view",
      "type": "function",
      "constant": true
    },
    {
      "inputs": [],
      "name": "getVotes",
      "outputs": [
        {
          "internalType": "uint256[]",
          "name": "",
          "type": "uint256[]"
        }
      ],
      "stateMutability": "view",
      "type": "function",
      "constant": true
    },
    {
      "inputs": [],
      "name": "getStakeholderBal",
      "outputs": [
        {
          "internalType": "uint256",
          "name": "",
          "type": "uint256"
        }
      ],
      "stateMutability": "view",
      "type": "function",
      "constant": true
    },
    {
      "inputs": [],
      "name": "getMemberBal",
      "outputs": [
        {
          "internalType": "uint256",
          "name": "",
          "type": "uint256"
        }
      ],
      "stateMutability": "view",
      "type": "function",
      "constant": true
    },
    {
      "inputs": [],
      "name": "isStakeholder",
      "outputs": [
        {
          "internalType": "bool",
          "name": "",
          "type": "bool"
        }
      ],
      "stateMutability": "view",
      "type": "function",
      "constant": true
    },
    {
      "inputs": [],
      "name": "isMember",
      "outputs": [
        {
          "internalType": "bool",
          "name": "",
          "type": "bool"
        }
      ],
      "stateMutability": "view",
      "type": "function",
      "constant": true
    },
    {
      "inputs": [
        {
          "internalType": "uint256",
          "name": "proposalId",
          "type": "uint256"
        },
        {
          "internalType": "bool",
          "name": "inFavour",
          "type": "bool"
        }
      ],
      "name": "vote",
      "outputs": [],
      "stateMutability": "nonpayable",
      "type": "function"
    },
    {
      "inputs": [
        {
          "internalType": "uint256",
          "name": "proposalId",
          "type": "uint256"
        },
        {
          "internalType": "uint256",
          "name": "fundAmount",
          "type": "uint256"
        }
      ],
      "name": "provideFunds",
      "outputs": [],
      "stateMutability": "payable",
      "type": "function",
      "payable": true
    },
    {
      "inputs": [
        {
          "internalType": "uint256",
          "name": "proposalId",
          "type": "uint256"
        }
      ],
      "name": "releaseFunding",
      "outputs": [],
      "stateMutability": "payable",
      "type": "function",
      "payable": true
    },
    {
      "inputs": [],
      "name": "createStakeholder",
      "outputs": [],
      "stateMutability": "payable",
      "type": "function",
      "payable": true
    }
  ],
  "bytecode": "0x6080604052600060065534801561001557600080fd5b5060016000819055506138db8061002d6000396000f3fe6080604052600436106101355760003560e01c806391d14854116100ab578063c7f758a81161006f578063c7f758a8146103ef578063c9d27afe1461042c578063cceb68f514610455578063d02982cf14610480578063d547741f146104ab578063f8d41b96146104d457610135565b806391d1485414610324578063a217fddf14610361578063a8e78b201461038c578063b3bcf752146103a8578063c02146ac146103c457610135565b8063248a9ca3116100fd578063248a9ca3146102235780632f2ff15d1461026057806336568abe146102895780636dd8cdd2146102b25780637ed3a7e7146102dd5780638bc3b92b1461030857610135565b806301ffc9a71461013a5780630a9f46ad146101775780630d2e57ee146101a25780630dc96015146101cd5780631c681a42146101f8575b600080fd5b34801561014657600080fd5b50610161600480360381019061015c91906125ad565b6104de565b60405161016e91906125f5565b60405180910390f35b34801561018357600080fd5b5061018c610558565b6040516101999190612629565b60405180910390f35b3480156101ae57600080fd5b506101b761055e565b6040516101c49190612629565b60405180910390f35b3480156101d957600080fd5b506101e261062c565b6040516101ef9190612702565b60405180910390f35b34801561020457600080fd5b5061020d610748565b60405161021a919061273d565b60405180910390f35b34801561022f57600080fd5b5061024a60048036038101906102459190612784565b61076c565b604051610257919061273d565b60405180910390f35b34801561026c57600080fd5b506102876004803603810190610282919061280f565b61078c565b005b34801561029557600080fd5b506102b060048036038101906102ab919061280f565b6107b5565b005b3480156102be57600080fd5b506102c7610838565b6040516102d49190612629565b60405180910390f35b3480156102e957600080fd5b506102f2610906565b6040516102ff919061273d565b60405180910390f35b610322600480360381019061031d919061287b565b61092a565b005b34801561033057600080fd5b5061034b6004803603810190610346919061280f565b610bb6565b60405161035891906125f5565b60405180910390f35b34801561036d57600080fd5b50610376610c21565b604051610383919061273d565b60405180910390f35b6103a660048036038101906103a19190612920565b610c28565b005b6103c260048036038101906103bd91906129fc565b610eb2565b005b3480156103d057600080fd5b506103d9611047565b6040516103e691906125f5565b60405180910390f35b3480156103fb57600080fd5b50610416600480360381019061041191906129fc565b611090565b6040516104239190612d4a565b60405180910390f35b34801561043857600080fd5b50610453600480360381019061044e9190612d98565b611476565b005b34801561046157600080fd5b5061046a61173f565b6040516104779190612ff2565b60405180910390f35b34801561048c57600080fd5b50610495611bb8565b6040516104a291906125f5565b60405180910390f35b3480156104b757600080fd5b506104d260048036038101906104cd919061280f565b611c01565b005b6104dc611c2a565b005b60007f7965db0b000000000000000000000000000000000000000000000000000000007bffffffffffffffffffffffffffffffffffffffffffffffffffffffff1916827bffffffffffffffffffffffffffffffffffffffffffffffffffffffff19161480610551575061055082611ee5565b5b9050919050565b60065481565b600060405180606001604052806024815260200161385f602491396105a37fffa60083152bd11704a80cc8c7a409dad8aa74288b454a3ba0e94c0abc7cf16833610bb6565b81906105e5576040517f08c379a00000000000000000000000000000000000000000000000000000000081526004016105dc919061305e565b60405180910390fd5b50600460003373ffffffffffffffffffffffffffffffffffffffff1673ffffffffffffffffffffffffffffffffffffffff1681526020019081526020016000205491505090565b60606040518060600160405280602881526020016137bb602891396106717ff4bb84e1768dd286358a736d195a0b228621173f655a73b89bf8b191ed0ba07d33610bb6565b81906106b3576040517f08c379a00000000000000000000000000000000000000000000000000000000081526004016106aa919061305e565b60405180910390fd5b50600560003373ffffffffffffffffffffffffffffffffffffffff1673ffffffffffffffffffffffffffffffffffffffff16815260200190815260200160002080548060200260200160405190810160405280929190818152602001828054801561073d57602002820191906000526020600020905b815481526020019060010190808311610729575b505050505091505090565b7fffa60083152bd11704a80cc8c7a409dad8aa74288b454a3ba0e94c0abc7cf16881565b600060016000838152602001908152602001600020600101549050919050565b6107958261076c565b6107a6816107a1611f4f565b611f57565b6107b08383611ff4565b505050565b6107bd611f4f565b73ffffffffffffffffffffffffffffffffffffffff168173ffffffffffffffffffffffffffffffffffffffff161461082a576040517f08c379a0000000000000000000000000000000000000000000000000000000008152600401610821906130f2565b60405180910390fd5b61083482826120d4565b5050565b60006040518060600160405280602881526020016137bb6028913961087d7ff4bb84e1768dd286358a736d195a0b228621173f655a73b89bf8b191ed0ba07d33610bb6565b81906108bf576040517f08c379a00000000000000000000000000000000000000000000000000000000081526004016108b6919061305e565b60405180910390fd5b50600360003373ffffffffffffffffffffffffffffffffffffffff1673ffffffffffffffffffffffffffffffffffffffff1681526020019081526020016000205491505090565b7ff4bb84e1768dd286358a736d195a0b228621173f655a73b89bf8b191ed0ba07d81565b6040518060600160405280602381526020016138836023913961096d7ff4bb84e1768dd286358a736d195a0b228621173f655a73b89bf8b191ed0ba07d33610bb6565b81906109af576040517f08c379a00000000000000000000000000000000000000000000000000000000081526004016109a6919061305e565b60405180910390fd5b5060006002600085815260200190815260200160002090508060070160029054906101000a900460ff1615610a19576040517f08c379a0000000000000000000000000000000000000000000000000000000008152600401610a109061315e565b60405180910390fd5b8060040154816003015411610a63576040517f08c379a0000000000000000000000000000000000000000000000000000000008152600401610a5a906131f0565b60405180910390fd5b8060010154816009015410610aad576040517f08c379a0000000000000000000000000000000000000000000000000000000008152600401610aa49061315e565b60405180910390fd5b82816009016000828254610ac1919061323f565b9250508190555080600a0160405180606001604052803373ffffffffffffffffffffffffffffffffffffffff16815260200185815260200142815250908060018154018082558091505060019003906000526020600020906003020160009091909190915060008201518160000160006101000a81548173ffffffffffffffffffffffffffffffffffffffff021916908373ffffffffffffffffffffffffffffffffffffffff160217905550602082015181600101556040820151816002015550508060010154816009015410610bb05760018160070160006101000a81548160ff0219169083151502179055505b50505050565b60006001600084815260200190815260200160002060000160008373ffffffffffffffffffffffffffffffffffffffff1673ffffffffffffffffffffffffffffffffffffffff16815260200190815260200160002060009054906101000a900460ff16905092915050565b6000801b81565b6040518060600160405280602581526020016137e360259139610c6b7fffa60083152bd11704a80cc8c7a409dad8aa74288b454a3ba0e94c0abc7cf16833610bb6565b8190610cad576040517f08c379a0000000000000000000000000000000000000000000000000000000008152600401610ca4919061305e565b60405180910390fd5b5066b1a2bc2ec500003414610cf7576040517f08c379a0000000000000000000000000000000000000000000000000000000008152600401610cee90613307565b60405180910390fd5b6000600654905060006002600083815260200190815260200160002090508181600001819055508888826006019190610d31929190612400565b508a8a826005019190610d45929190612400565b50868160070160036101000a81548173ffffffffffffffffffffffffffffffffffffffff021916908373ffffffffffffffffffffffffffffffffffffffff160217905550338160080160006101000a81548173ffffffffffffffffffffffffffffffffffffffff021916908373ffffffffffffffffffffffffffffffffffffffff16021790555085816001018190555061012c63ffffffff1642610de9919061323f565b816002018190555060008160070160026101000a81548160ff02191690831515021790555060008160070160006101000a81548160ff021916908315150217905550848482600b019190610e3e929190612400565b5060066000815480929190610e5290613327565b91905055503373ffffffffffffffffffffffffffffffffffffffff167f8dfa4a39b973cacc42c5d14d9461d66fd1fda5ea696f7d2a3c44fd9d7f11d04f87604051610e9d9190612629565b60405180910390a25050505050505050505050565b6040518060600160405280602e8152602001613808602e9139610ef57ff4bb84e1768dd286358a736d195a0b228621173f655a73b89bf8b191ed0ba07d33610bb6565b8190610f37576040517f08c379a0000000000000000000000000000000000000000000000000000000008152600401610f2e919061305e565b60405180910390fd5b5060006002600084815260200190815260200160002090508060010154816009015411610f99576040517f08c379a0000000000000000000000000000000000000000000000000000000008152600401610f90906133e1565b60405180910390fd5b8060070160039054906101000a900473ffffffffffffffffffffffffffffffffffffffff1673ffffffffffffffffffffffffffffffffffffffff166108fc82600901549081150290604051600060405180830381858888f19350505050158015611007573d6000803e3d6000fd5b5060018160070160026101000a81548160ff02191690831515021790555060018160070160006101000a81548160ff021916908315150217905550505050565b600080600360003373ffffffffffffffffffffffffffffffffffffffff1673ffffffffffffffffffffffffffffffffffffffff1681526020019081526020016000205411905090565b611098612486565b60026000838152602001908152602001600020604051806101e001604052908160008201548152602001600182015481526020016002820154815260200160038201548152602001600482015481526020016005820180546110f990613430565b80601f016020809104026020016040519081016040528092919081815260200182805461112590613430565b80156111725780601f1061114757610100808354040283529160200191611172565b820191906000526020600020905b81548152906001019060200180831161115557829003601f168201915b5050505050815260200160068201805461118b90613430565b80601f01602080910402602001604051908101604052809291908181526020018280546111b790613430565b80156112045780601f106111d957610100808354040283529160200191611204565b820191906000526020600020905b8154815290600101906020018083116111e757829003601f168201915b505050505081526020016007820160009054906101000a900460ff161515151581526020016007820160019054906101000a900460ff161515151581526020016007820160029054906101000a900460ff161515151581526020016007820160039054906101000a900473ffffffffffffffffffffffffffffffffffffffff1673ffffffffffffffffffffffffffffffffffffffff1673ffffffffffffffffffffffffffffffffffffffff1681526020016008820160009054906101000a900473ffffffffffffffffffffffffffffffffffffffff1673ffffffffffffffffffffffffffffffffffffffff1673ffffffffffffffffffffffffffffffffffffffff16815260200160098201548152602001600a8201805480602002602001604051908101604052809291908181526020016000905b828210156113d557838290600052602060002090600302016040518060600160405290816000820160009054906101000a900473ffffffffffffffffffffffffffffffffffffffff1673ffffffffffffffffffffffffffffffffffffffff1673ffffffffffffffffffffffffffffffffffffffff1681526020016001820154815260200160028201548152505081526020019060010190611339565b505050508152602001600b820180546113ed90613430565b80601f016020809104026020016040519081016040528092919081815260200182805461141990613430565b80156114665780601f1061143b57610100808354040283529160200191611466565b820191906000526020600020905b81548152906001019060200180831161144957829003601f168201915b5050505050815250509050919050565b604051806060016040528060298152602001613836602991396114b97ff4bb84e1768dd286358a736d195a0b228621173f655a73b89bf8b191ed0ba07d33610bb6565b81906114fb576040517f08c379a00000000000000000000000000000000000000000000000000000000081526004016114f2919061305e565b60405180910390fd5b5060006002600085815260200190815260200160002090508060070160009054906101000a900460ff1680611534575042816002015411155b156115915760018160070160006101000a81548160ff0219169083151502179055506040517f08c379a0000000000000000000000000000000000000000000000000000000008152600401611588906134d3565b60405180910390fd5b60005b600560003373ffffffffffffffffffffffffffffffffffffffff1673ffffffffffffffffffffffffffffffffffffffff1681526020019081526020016000208054905081101561169257600560003373ffffffffffffffffffffffffffffffffffffffff1673ffffffffffffffffffffffffffffffffffffffff168152602001908152602001600020818154811061162f5761162e6134f3565b5b906000526020600020015482600001540361167f576040517f08c379a00000000000000000000000000000000000000000000000000000000081526004016116769061356e565b60405180910390fd5b808061168a90613327565b915050611594565b5082156116b8578060030160008154809291906116ae90613327565b91905055506116d3565b8060040160008154809291906116cd90613327565b91905055505b600560003373ffffffffffffffffffffffffffffffffffffffff1673ffffffffffffffffffffffffffffffffffffffff16815260200190815260200160002084908060018154018082558091505060019003906000526020600020016000909190919091505550505050565b6060600060065467ffffffffffffffff81111561175f5761175e61358e565b5b60405190808252806020026020018201604052801561179857816020015b611785612486565b81526020019060019003908161177d5790505b50905060005b600654811015611bb05760026000828152602001908152602001600020604051806101e0016040529081600082015481526020016001820154815260200160028201548152602001600382015481526020016004820154815260200160058201805461180990613430565b80601f016020809104026020016040519081016040528092919081815260200182805461183590613430565b80156118825780601f1061185757610100808354040283529160200191611882565b820191906000526020600020905b81548152906001019060200180831161186557829003601f168201915b5050505050815260200160068201805461189b90613430565b80601f01602080910402602001604051908101604052809291908181526020018280546118c790613430565b80156119145780601f106118e957610100808354040283529160200191611914565b820191906000526020600020905b8154815290600101906020018083116118f757829003601f168201915b505050505081526020016007820160009054906101000a900460ff161515151581526020016007820160019054906101000a900460ff161515151581526020016007820160029054906101000a900460ff161515151581526020016007820160039054906101000a900473ffffffffffffffffffffffffffffffffffffffff1673ffffffffffffffffffffffffffffffffffffffff1673ffffffffffffffffffffffffffffffffffffffff1681526020016008820160009054906101000a900473ffffffffffffffffffffffffffffffffffffffff1673ffffffffffffffffffffffffffffffffffffffff1673ffffffffffffffffffffffffffffffffffffffff16815260200160098201548152602001600a8201805480602002602001604051908101604052809291908181526020016000905b82821015611ae557838290600052602060002090600302016040518060600160405290816000820160009054906101000a900473ffffffffffffffffffffffffffffffffffffffff1673ffffffffffffffffffffffffffffffffffffffff1673ffffffffffffffffffffffffffffffffffffffff1681526020016001820154815260200160028201548152505081526020019060010190611a49565b505050508152602001600b82018054611afd90613430565b80601f0160208091040260200160405190810160405280929190818152602001828054611b2990613430565b8015611b765780601f10611b4b57610100808354040283529160200191611b76565b820191906000526020600020905b815481529060010190602001808311611b5957829003601f168201915b505050505081525050828281518110611b9257611b916134f3565b5b60200260200101819052508080611ba890613327565b91505061179e565b508091505090565b600080600460003373ffffffffffffffffffffffffffffffffffffffff1673ffffffffffffffffffffffffffffffffffffffff1681526020019081526020016000205411905090565b611c0a8261076c565b611c1b81611c16611f4f565b611f57565b611c2583836120d4565b505050565b6000349050611c597ff4bb84e1768dd286358a736d195a0b228621173f655a73b89bf8b191ed0ba07d33610bb6565b611e3557600081600460003373ffffffffffffffffffffffffffffffffffffffff1673ffffffffffffffffffffffffffffffffffffffff16815260200190815260200160002054611caa919061323f565b90506702c68af0bb1400008110611dae57611ce57ff4bb84e1768dd286358a736d195a0b228621173f655a73b89bf8b191ed0ba07d336121b6565b611d0f7fffa60083152bd11704a80cc8c7a409dad8aa74288b454a3ba0e94c0abc7cf168336121b6565b80600360003373ffffffffffffffffffffffffffffffffffffffff1673ffffffffffffffffffffffffffffffffffffffff1681526020019081526020016000208190555081600460003373ffffffffffffffffffffffffffffffffffffffff1673ffffffffffffffffffffffffffffffffffffffff1681526020019081526020016000206000828254611da2919061323f565b92505081905550611e2f565b611dd87fffa60083152bd11704a80cc8c7a409dad8aa74288b454a3ba0e94c0abc7cf168336121b6565b81600460003373ffffffffffffffffffffffffffffffffffffffff1673ffffffffffffffffffffffffffffffffffffffff1681526020019081526020016000206000828254611e27919061323f565b925050819055505b50611ee2565b80600460003373ffffffffffffffffffffffffffffffffffffffff1673ffffffffffffffffffffffffffffffffffffffff1681526020019081526020016000206000828254611e84919061323f565b9250508190555080600360003373ffffffffffffffffffffffffffffffffffffffff1673ffffffffffffffffffffffffffffffffffffffff1681526020019081526020016000206000828254611eda919061323f565b925050819055505b50565b60007f01ffc9a7000000000000000000000000000000000000000000000000000000007bffffffffffffffffffffffffffffffffffffffffffffffffffffffff1916827bffffffffffffffffffffffffffffffffffffffffffffffffffffffff1916149050919050565b600033905090565b611f618282610bb6565b611ff057611f868173ffffffffffffffffffffffffffffffffffffffff1660146121c4565b611f948360001c60206121c4565b604051602001611fa5929190613691565b6040516020818303038152906040526040517f08c379a0000000000000000000000000000000000000000000000000000000008152600401611fe7919061305e565b60405180910390fd5b5050565b611ffe8282610bb6565b6120d057600180600084815260200190815260200160002060000160008373ffffffffffffffffffffffffffffffffffffffff1673ffffffffffffffffffffffffffffffffffffffff16815260200190815260200160002060006101000a81548160ff021916908315150217905550612075611f4f565b73ffffffffffffffffffffffffffffffffffffffff168173ffffffffffffffffffffffffffffffffffffffff16837f2f8788117e7eff1d82e926ec794901d17c78024a50270940304540a733656f0d60405160405180910390a45b5050565b6120de8282610bb6565b156121b25760006001600084815260200190815260200160002060000160008373ffffffffffffffffffffffffffffffffffffffff1673ffffffffffffffffffffffffffffffffffffffff16815260200190815260200160002060006101000a81548160ff021916908315150217905550612157611f4f565b73ffffffffffffffffffffffffffffffffffffffff168173ffffffffffffffffffffffffffffffffffffffff16837ff6391f5c32d9c69d2a47ea670b442974b53935d1edc7fd64eb21e047a839171b60405160405180910390a45b5050565b6121c08282611ff4565b5050565b6060600060028360026121d791906136cb565b6121e1919061323f565b67ffffffffffffffff8111156121fa576121f961358e565b5b6040519080825280601f01601f19166020018201604052801561222c5781602001600182028036833780820191505090505b5090507f300000000000000000000000000000000000000000000000000000000000000081600081518110612264576122636134f3565b5b60200101907effffffffffffffffffffffffffffffffffffffffffffffffffffffffffffff1916908160001a9053507f7800000000000000000000000000000000000000000000000000000000000000816001815181106122c8576122c76134f3565b5b60200101907effffffffffffffffffffffffffffffffffffffffffffffffffffffffffffff1916908160001a9053506000600184600261230891906136cb565b612312919061323f565b90505b60018111156123b2577f3031323334353637383961626364656600000000000000000000000000000000600f861660108110612354576123536134f3565b5b1a60f81b82828151811061236b5761236a6134f3565b5b60200101907effffffffffffffffffffffffffffffffffffffffffffffffffffffffffffff1916908160001a905350600485901c9450806123ab90613725565b9050612315565b50600084146123f6576040517f08c379a00000000000000000000000000000000000000000000000000000000081526004016123ed9061379a565b60405180910390fd5b8091505092915050565b82805461240c90613430565b90600052602060002090601f01602090048101928261242e5760008555612475565b82601f1061244757803560ff1916838001178555612475565b82800160010185558215612475579182015b82811115612474578235825591602001919060010190612459565b5b509050612482919061252e565b5090565b604051806101e0016040528060008152602001600081526020016000815260200160008152602001600081526020016060815260200160608152602001600015158152602001600015158152602001600015158152602001600073ffffffffffffffffffffffffffffffffffffffff168152602001600073ffffffffffffffffffffffffffffffffffffffff1681526020016000815260200160608152602001606081525090565b5b8082111561254757600081600090555060010161252f565b5090565b600080fd5b600080fd5b60007fffffffff0000000000000000000000000000000000000000000000000000000082169050919050565b61258a81612555565b811461259557600080fd5b50565b6000813590506125a781612581565b92915050565b6000602082840312156125c3576125c261254b565b5b60006125d184828501612598565b91505092915050565b60008115159050919050565b6125ef816125da565b82525050565b600060208201905061260a60008301846125e6565b92915050565b6000819050919050565b61262381612610565b82525050565b600060208201905061263e600083018461261a565b92915050565b600081519050919050565b600082825260208201905092915050565b6000819050602082019050919050565b61267981612610565b82525050565b600061268b8383612670565b60208301905092915050565b6000602082019050919050565b60006126af82612644565b6126b9818561264f565b93506126c483612660565b8060005b838110156126f55781516126dc888261267f565b97506126e783612697565b9250506001810190506126c8565b5085935050505092915050565b6000602082019050818103600083015261271c81846126a4565b905092915050565b6000819050919050565b61273781612724565b82525050565b6000602082019050612752600083018461272e565b92915050565b61276181612724565b811461276c57600080fd5b50565b60008135905061277e81612758565b92915050565b60006020828403121561279a5761279961254b565b5b60006127a88482850161276f565b91505092915050565b600073ffffffffffffffffffffffffffffffffffffffff82169050919050565b60006127dc826127b1565b9050919050565b6127ec816127d1565b81146127f757600080fd5b50565b600081359050612809816127e3565b92915050565b600080604083850312156128265761282561254b565b5b60006128348582860161276f565b9250506020612845858286016127fa565b9150509250929050565b61285881612610565b811461286357600080fd5b50565b6000813590506128758161284f565b92915050565b600080604083850312156128925761289161254b565b5b60006128a085828601612866565b92505060206128b185828601612866565b9150509250929050565b600080fd5b600080fd5b600080fd5b60008083601f8401126128e0576128df6128bb565b5b8235905067ffffffffffffffff8111156128fd576128fc6128c0565b5b602083019150836001820283011115612919576129186128c5565b5b9250929050565b60008060008060008060008060a0898b0312156129405761293f61254b565b5b600089013567ffffffffffffffff81111561295e5761295d612550565b5b61296a8b828c016128ca565b9850985050602089013567ffffffffffffffff81111561298d5761298c612550565b5b6129998b828c016128ca565b965096505060406129ac8b828c016127fa565b94505060606129bd8b828c01612866565b935050608089013567ffffffffffffffff8111156129de576129dd612550565b5b6129ea8b828c016128ca565b92509250509295985092959890939650565b600060208284031215612a1257612a1161254b565b5b6000612a2084828501612866565b91505092915050565b600081519050919050565b600082825260208201905092915050565b60005b83811015612a63578082015181840152602081019050612a48565b83811115612a72576000848401525b50505050565b6000601f19601f8301169050919050565b6000612a9482612a29565b612a9e8185612a34565b9350612aae818560208601612a45565b612ab781612a78565b840191505092915050565b612acb816125da565b82525050565b6000612adc826127b1565b9050919050565b612aec81612ad1565b82525050565b612afb816127d1565b82525050565b600081519050919050565b600082825260208201905092915050565b6000819050602082019050919050565b606082016000820151612b436000850182612af2565b506020820151612b566020850182612670565b506040820151612b696040850182612670565b50505050565b6000612b7b8383612b2d565b60608301905092915050565b6000602082019050919050565b6000612b9f82612b01565b612ba98185612b0c565b9350612bb483612b1d565b8060005b83811015612be5578151612bcc8882612b6f565b9750612bd783612b87565b925050600181019050612bb8565b5085935050505092915050565b60006101e083016000830151612c0b6000860182612670565b506020830151612c1e6020860182612670565b506040830151612c316040860182612670565b506060830151612c446060860182612670565b506080830151612c576080860182612670565b5060a083015184820360a0860152612c6f8282612a89565b91505060c083015184820360c0860152612c898282612a89565b91505060e0830151612c9e60e0860182612ac2565b50610100830151612cb3610100860182612ac2565b50610120830151612cc8610120860182612ac2565b50610140830151612cdd610140860182612ae3565b50610160830151612cf2610160860182612af2565b50610180830151612d07610180860182612670565b506101a08301518482036101a0860152612d218282612b94565b9150506101c08301518482036101c0860152612d3d8282612a89565b9150508091505092915050565b60006020820190508181036000830152612d648184612bf2565b905092915050565b612d75816125da565b8114612d8057600080fd5b50565b600081359050612d9281612d6c565b92915050565b60008060408385031215612daf57612dae61254b565b5b6000612dbd85828601612866565b9250506020612dce85828601612d83565b9150509250929050565b600081519050919050565b600082825260208201905092915050565b6000819050602082019050919050565b60006101e083016000830151612e1d6000860182612670565b506020830151612e306020860182612670565b506040830151612e436040860182612670565b506060830151612e566060860182612670565b506080830151612e696080860182612670565b5060a083015184820360a0860152612e818282612a89565b91505060c083015184820360c0860152612e9b8282612a89565b91505060e0830151612eb060e0860182612ac2565b50610100830151612ec5610100860182612ac2565b50610120830151612eda610120860182612ac2565b50610140830151612eef610140860182612ae3565b50610160830151612f04610160860182612af2565b50610180830151612f19610180860182612670565b506101a08301518482036101a0860152612f338282612b94565b9150506101c08301518482036101c0860152612f4f8282612a89565b9150508091505092915050565b6000612f688383612e04565b905092915050565b6000602082019050919050565b6000612f8882612dd8565b612f928185612de3565b935083602082028501612fa485612df4565b8060005b85811015612fe05784840389528151612fc18582612f5c565b9450612fcc83612f70565b925060208a01995050600181019050612fa8565b50829750879550505050505092915050565b6000602082019050818103600083015261300c8184612f7d565b905092915050565b600082825260208201905092915050565b600061303082612a29565b61303a8185613014565b935061304a818560208601612a45565b61305381612a78565b840191505092915050565b600060208201905081810360008301526130788184613025565b905092915050565b7f416363657373436f6e74726f6c3a2063616e206f6e6c792072656e6f756e636560008201527f20726f6c657320666f722073656c660000000000000000000000000000000000602082015250565b60006130dc602f83613014565b91506130e782613080565b604082019050919050565b6000602082019050818103600083015261310b816130cf565b9050919050565b7f52657175697265642066756e6473206172652070726f76696465642e00000000600082015250565b6000613148601c83613014565b915061315382613112565b602082019050919050565b600060208201905081810360008301526131778161313b565b9050919050565b7f546869732070726f706f73616c206973206e6f742073656c656374656420666f60008201527f722066756e64696e672e00000000000000000000000000000000000000000000602082015250565b60006131da602a83613014565b91506131e58261317e565b604082019050919050565b60006020820190508181036000830152613209816131cd565b9050919050565b7f4e487b7100000000000000000000000000000000000000000000000000000000600052601160045260246000fd5b600061324a82612610565b915061325583612610565b9250827fffffffffffffffffffffffffffffffffffffffffffffffffffffffffffffffff0382111561328a57613289613210565b5b828201905092915050565b7f596f75206e65656420746f2061646420302e3035204d4154494320746f20637260008201527f6561746520612070726f706f73616c0000000000000000000000000000000000602082015250565b60006132f1602f83613014565b91506132fc82613295565b604082019050919050565b60006020820190508181036000830152613320816132e4565b9050919050565b600061333282612610565b91507fffffffffffffffffffffffffffffffffffffffffffffffffffffffffffffffff820361336457613363613210565b5b600182019050919050565b7f52657175697265642066756e647320617265206e6f74206d65742e20506c656160008201527f73652070726f766964652066756e64732e000000000000000000000000000000602082015250565b60006133cb603183613014565b91506133d68261336f565b604082019050919050565b600060208201905081810360008301526133fa816133be565b9050919050565b7f4e487b7100000000000000000000000000000000000000000000000000000000600052602260045260246000fd5b6000600282049050600182168061344857607f821691505b60208210810361345b5761345a613401565b5b50919050565b7f54696d6520706572696f64206f6620746869732070726f706f73616c2069732060008201527f656e6465642e0000000000000000000000000000000000000000000000000000602082015250565b60006134bd602683613014565b91506134c882613461565b604082019050919050565b600060208201905081810360008301526134ec816134b0565b9050919050565b7f4e487b7100000000000000000000000000000000000000000000000000000000600052603260045260246000fd5b7f596f752063616e206f6e6c7920766f7465206f6e63652e000000000000000000600082015250565b6000613558601783613014565b915061356382613522565b602082019050919050565b600060208201905081810360008301526135878161354b565b9050919050565b7f4e487b7100000000000000000000000000000000000000000000000000000000600052604160045260246000fd5b600081905092915050565b7f416363657373436f6e74726f6c3a206163636f756e7420000000000000000000600082015250565b60006135fe6017836135bd565b9150613609826135c8565b601782019050919050565b600061361f82612a29565b61362981856135bd565b9350613639818560208601612a45565b80840191505092915050565b7f206973206d697373696e6720726f6c6520000000000000000000000000000000600082015250565b600061367b6011836135bd565b915061368682613645565b601182019050919050565b600061369c826135f1565b91506136a88285613614565b91506136b38261366e565b91506136bf8284613614565b91508190509392505050565b60006136d682612610565b91506136e183612610565b9250817fffffffffffffffffffffffffffffffffffffffffffffffffffffffffffffffff048311821515161561371a57613719613210565b5b828202905092915050565b600061373082612610565b91506000820361374357613742613210565b5b600182039050919050565b7f537472696e67733a20686578206c656e67746820696e73756666696369656e74600082015250565b6000613784602083613014565b915061378f8261374e565b602082019050919050565b600060208201905081810360008301526137b381613777565b905091905056fe4f6e6c79205374616b65686f6c6465722063616e2063616c6c20746869732066756e6374696f6e2e4f6e6c79206d656d626572732063616e20637265617465206e65772070726f706f73616c2e4f6e6c79205374616b65686f6c646572732061726520616c6c6f77656420746f2072656c656173652066756e64734f6e6c79205374616b65686f6c646572732063616e20766f7465206f6e20612070726f706f73616c2e4f6e6c79204d656d626572732063616e2063616c6c20746869732066756e6374696f6e2e4f6e6c79205374616b65686f6c646572732063616e206d616b65207061796d656e7473a26469706673582212208329db1b7f5eaad407c8326aa5790eb4d66316fce14fe6af4d61ea9614e34ffd64736f6c634300080d0033",
  "immutableReferences": {},
  "source": "// SPDX-License-Identifier: MIT\npragma solidity ^0.8.0;\n\nimport \"@openzeppelin/contracts/access/AccessControl.sol\";\nimport \"@openzeppelin/contracts/security/ReentrancyGuard.sol\";\n\ncontract dVC is ReentrancyGuard, AccessControl {\n    struct Proposal {\n        uint256 id;\n        uint256 amount;\n        uint256 livePeriod;\n        uint256 voteInFavor;\n        uint256 voteAgainst;\n        string title;\n        string desc;\n        bool isCompleted;\n        bool paid;\n        bool isPaid;\n        address payable receiverAddress;\n        address proposer;\n        uint256 totalFundRaised;\n        Funding[] funders;\n        string imageId;\n    }\n\n    struct Funding {\n        address payer;\n        uint256 amount;\n        uint256 timestamp;\n    }\n\n    mapping(uint256 => Proposal) private proposals;\n    mapping(address => uint256) private stakeholders;\n    mapping(address => uint256) private members;\n    mapping(address => uint256[]) private votes;\n\n    bytes32 public constant MEMBER = keccak256(\"MEMBER\");\n    bytes32 public constant STAKEHOLDER = keccak256(\"STAKEHOLDER\");\n\n    uint32 constant votingPeriod = 5 minutes;\n    uint256 public proposalsCount = 0;\n\n    event NewMember(address indexed fromAddress, uint256 amount);\n    event NewProposal(address indexed proposer, uint256 amount);\n    event Payment(\n        address indexed stakeholder,\n        address indexed projectAddress,\n        uint256 amount\n    );\n\n    modifier onlyMember(string memory message) {\n        require(hasRole(MEMBER, msg.sender), message);\n        _;\n    }\n\n    modifier onlyStakeholder(string memory message) {\n        require(hasRole(STAKEHOLDER, msg.sender), message);\n        _;\n    }\n\n    function createProposal(\n        string calldata title,\n        string calldata desc,\n        address receiverAddress,\n        uint256 amount,\n        string calldata imageId\n    ) public payable onlyMember(\"Only members can create new proposal.\") {\n        require(\n            msg.value == 0.05 * 10**18,\n            \"You need to add 0.05 MATIC to create a proposal\"\n        );\n        uint256 proposalId = proposalsCount;\n        Proposal storage proposal = proposals[proposalId];\n        proposal.id = proposalId;\n        proposal.desc = desc;\n        proposal.title = title;\n        proposal.receiverAddress = payable(receiverAddress);\n        proposal.proposer = payable(msg.sender);\n        proposal.amount = amount;\n        proposal.livePeriod = block.timestamp + votingPeriod;\n        proposal.isPaid = false;\n        proposal.isCompleted = false;\n        proposal.imageId = imageId;\n        proposalsCount++;\n        emit NewProposal(msg.sender, amount);\n    }\n\n    function getAllProposals() public view returns (Proposal[] memory) {\n        Proposal[] memory tempProposals = new Proposal[](proposalsCount);\n        for (uint256 index = 0; index < proposalsCount; index++) {\n            tempProposals[index] = proposals[index];\n        }\n        return tempProposals;\n    }\n\n    function getProposal(uint256 proposalId)\n        public\n        view\n        returns (Proposal memory)\n    {\n        return proposals[proposalId];\n    }\n\n    function getVotes()\n        public\n        view\n        onlyStakeholder(\"Only Stakeholder can call this function.\")\n        returns (uint256[] memory)\n    {\n        return votes[msg.sender];\n    }\n\n    function getStakeholderBal()\n        public\n        view\n        onlyStakeholder(\"Only Stakeholder can call this function.\")\n        returns (uint256)\n    {\n        return stakeholders[msg.sender];\n    }\n\n    function getMemberBal()\n        public\n        view\n        onlyMember(\"Only Members can call this function.\")\n        returns (uint256)\n    {\n        return members[msg.sender];\n    }\n\n    function isStakeholder() public view returns (bool) {\n        return stakeholders[msg.sender] > 0;\n    }\n\n    function isMember() public view returns (bool) {\n        return members[msg.sender] > 0;\n    }\n\n    function vote(uint256 proposalId, bool inFavour)\n        public\n        onlyStakeholder(\"Only Stakeholders can vote on a proposal.\")\n    {\n        Proposal storage proposal = proposals[proposalId];\n\n        if (proposal.isCompleted || proposal.livePeriod <= block.timestamp) {\n            proposal.isCompleted = true;\n            revert(\"Time period of this proposal is ended.\");\n        }\n        for (uint256 i = 0; i < votes[msg.sender].length; i++) {\n            if (proposal.id == votes[msg.sender][i])\n                revert(\"You can only vote once.\");\n        }\n\n        if (inFavour) proposal.voteInFavor++;\n        else proposal.voteAgainst++;\n\n        votes[msg.sender].push(proposalId);\n    }\n\n    function provideFunds(uint256 proposalId, uint256 fundAmount)\n        public\n        payable\n        onlyStakeholder(\"Only Stakeholders can make payments\")\n    {\n        Proposal storage proposal = proposals[proposalId];\n\n        if (proposal.isPaid) revert(\"Required funds are provided.\");\n        if (proposal.voteInFavor <= proposal.voteAgainst)\n            revert(\"This proposal is not selected for funding.\");\n        if (proposal.totalFundRaised >= proposal.amount)\n            revert(\"Required funds are provided.\");\n        proposal.totalFundRaised += fundAmount;\n        proposal.funders.push(Funding(msg.sender, fundAmount, block.timestamp));\n        if (proposal.totalFundRaised >= proposal.amount) {\n            proposal.isCompleted = true;\n        }\n    }\n\n    function releaseFunding(uint256 proposalId)\n        public\n        payable\n        onlyStakeholder(\"Only Stakeholders are allowed to release funds\")\n    {\n        Proposal storage proposal = proposals[proposalId];\n\n        if (proposal.totalFundRaised <= proposal.amount) {\n            revert(\"Required funds are not met. Please provide funds.\");\n        }\n        proposal.receiverAddress.transfer(proposal.totalFundRaised);\n        proposal.isPaid = true;\n        proposal.isCompleted = true;\n    }\n\n    function createStakeholder() public payable {\n        uint256 amount = msg.value;\n        if (!hasRole(STAKEHOLDER, msg.sender)) {\n            uint256 total = members[msg.sender] + amount;\n            if (total >= 0.2 ether) {\n                _setupRole(STAKEHOLDER, msg.sender);\n                _setupRole(MEMBER, msg.sender);\n                stakeholders[msg.sender] = total;\n                members[msg.sender] += amount;\n            } else {\n                _setupRole(MEMBER, msg.sender);\n                members[msg.sender] += amount;\n            }\n        } else {\n            members[msg.sender] += amount;\n            stakeholders[msg.sender] += amount;\n        }\n    }\n}\n",
  "sourcePath": "/Users/xm/projects/LLL/web3-investment-club/contracts/dVC.sol",
  "compiler": {
    "name": "solc",
    "version": "0.8.13+commit.abaa5c0e.Emscripten.clang"
  },
  "schemaVersion": "3.4.7",
  "updatedAt": "2022-04-14T11:04:40.714Z",
  "networkType": "ethereum",
  "devdoc": {
    "kind": "dev",
    "methods": {
      "getRoleAdmin(bytes32)": {
        "details": "Returns the admin role that controls `role`. See {grantRole} and {revokeRole}. To change a role's admin, use {_setRoleAdmin}."
      },
      "grantRole(bytes32,address)": {
        "details": "Grants `role` to `account`. If `account` had not been already granted `role`, emits a {RoleGranted} event. Requirements: - the caller must have ``role``'s admin role."
      },
      "hasRole(bytes32,address)": {
        "details": "Returns `true` if `account` has been granted `role`."
      },
      "renounceRole(bytes32,address)": {
        "details": "Revokes `role` from the calling account. Roles are often managed via {grantRole} and {revokeRole}: this function's purpose is to provide a mechanism for accounts to lose their privileges if they are compromised (such as when a trusted device is misplaced). If the calling account had been revoked `role`, emits a {RoleRevoked} event. Requirements: - the caller must be `account`."
      },
      "revokeRole(bytes32,address)": {
        "details": "Revokes `role` from `account`. If `account` had been granted `role`, emits a {RoleRevoked} event. Requirements: - the caller must have ``role``'s admin role."
      },
      "supportsInterface(bytes4)": {
        "details": "See {IERC165-supportsInterface}."
      }
    },
    "version": 1
  },
  "userdoc": {
    "kind": "user",
    "methods": {},
    "version": 1
  }
}